:020000040000FA
:10000000012883163C3085009F01811381128111E4
:1000100083128514073099001830A00010140510C1
:1000200038308E0060308F000C1C14280C1000003B
:10003000051421308E00B0308F000C1C1D280C10D0
:10004000A00B0F2890162B308E0074308F000C1CE4
:1000500027280C10051008308E00EC308F000C1C87
:100060002F280C10000005140F308E00D8308F00A0
:100070000C1C38280C1000000000000000000510C7
:100080001A308E00B0308F000C1C44280C10000079
:10009000051408308E00EC308F000C1C4D280C101D
:1000A00005100E308E00D8308F000C1C55280C1017
:1000B000051408308E00EC308F000C1C5D280C10ED
:1000C00005100E308E00D8308F000C1C65280C10E7
:1000D00005140F308E00D8308F000C1C6D280C10CA
:1000E0000000000000000000000005100E308E002F
:1000F000D8308F000C1C7A280C10051408308E00A4
:10010000EC308F000C1C82280C10051009308E007A
:10011000EC308F000C1C8A280C10000005140830ED
:100120008E00EC308F000C1C93280C100000051082
:1001300008308E00EC308F000C1C9C280C1005142D
:1001400014308E00C4308F000C1CA4280C1000004A
:100150000000051009308E00EC308F000C1CAE281A
:100160000C1000000000051408308E00EC308F00E9
:100170000C1CB8280C10000005100F308E00D83071
:100180008F000C1CC1280C100000000000000000B3
:10019000051432308E0060308F000C1CCD280C10FE
:1001A00000000000051008308E00EC308F000C1CA1
:1001B000D7280C1005140E308E00D8308F000C1C80
:1001C000DF280C10000005101B308E00B0308F00AF
:1001D0000C1CE8280C1000000000051408308E00EC
:1001E000EC308F000C1CF2280C1005100E308E0025
:1001F000D8308F000C1CFA280C10051408308E0023
:10020000EC308F000C1C02290C10000000000510BF
:100210000F308E00D8308F000C1C0C290C10000001
:100220000000000005140E308E00D8308F000C1C2A
:1002300017290C10000005100F308E00D8308F00E9
:100240000C1C20290C1000000000000005140830D0
:100250008E00EC308F000C1C2B290C1000000510B8
:1002600008308E00EC308F000C1C34290C10051463
:1002700008308E00EC308F000C1C3C290C10000064
:10028000051008308E00EC308F000C1C45290C1036
:10029000051414308E00C4308F000C1C4D290C1036
:1002A0000000051008308E00EC308F000C1C562921
:1002B0000C10051408308E00EC308F000C1C5E29E9
:1002C0000C10000005100E308E00D8308F000C1C72
:1002D00067290C10051408308E00EC308F000C1CC0
:1002E0006F290C1005100F308E00D8308F000C1CB9
:0A02F00077290C10000000006A29B5
:0402FA000034003498
:02400E0014306C
:00000001FF
