:200000000A28FF3FFF3FFF3FFE00030EF8000A08F90074290B2870308400763011223130B4
:20002000831384003C301122830195280310B71C0314003003180130A3008728351D22285F
:20004000013023280030A00037082006FE392006B7000310B50DB60D320803193128B203DF
:200060009228B71C37280130B10008306A280130B500B60102306A283710B20B9228023097
:20008000B1001030B2008030B600B5019228371403307128371004307128B2033308350592
:2000A000A00034083605A10020040319592801305A280030A20037082206FE392206B700C5
:2000C0000310B60CB50C35083604031D6C280530B1000130B200922832080339031D92288C
:2000E0000230B100922837143208031D2F28B7100630B1001030B200A301A30A9228371471
:20010000A301A30A3208031D2F28F9219228310884000730040203181E2802308A0028309A
:200120000407820037112308080083160F178F160F16831285010514851005128512073080
:20014000990083169F01FC308500811383128E018F019001901610168B0183168C01831230
:200160008C010B170A3095003F309400C03093008C1283168C168312920192151216921603
:2001800012179214FF308316920083128C10831601138B108312121183168C1083128C109F
:2001A0008B100B16F0010830F300F41074117410D9282122362210148B1785144622003ABD
:2001C0000319F2280921003A031DF2284B222108AE002008AD002E08A8002D08A700062250
:2001E000023085063C22003A0319DE281620013A031DDE285022003A0319DE2819222108BF
:20020000B0002008AF003008A1002F08A000D821DE28A001A00A652974181929F30B70296A
:200220000130F000F101F2011030F3008312051270298312121183168C1083128C108B1087
:200240000B16F0010830F300F41074117410282916298516741C31290230F0008B100B1661
:200260007029A001A00A8312121183168C1083128C108B100B16F0010830F300F41074111B
:20028000741042297029851274183129033059290310F10DF20D74080139F104F30B54296E
:2002A0000230F3000430592973080339031D70290130F0007029051674186129A001A00ABD
:2002C0001929F30B7029A0011929700884000530040203180C2902308A0041300407820021
:2002E000741183122008080083168C1A7A290B1E8929872983128C1E77298C1203309307FD
:200300000318940A143094078C122F2277298B188D2983168C1C9E299B298B1050308316DD
:20032000920083128C1083168C14831212150B128B100516892983128C18A52979088A006E
:20034000780E8300FE0E7E0E09008C10A030831692000030831205190130EA219E299330B3
:20036000A501A6013806A300F9303906A4002308A6002408A5002618BF29A001C129803040
:20038000A000A1012008A2000310A60CA613A6170310A50CA5132208A5042508BA00BB0124
:2003A000BB00FF30BA01BA01BB052608BA04080031080319DF2906303106031D080021080E
:2003C000B4002008B300B71437150130B1000830B2000800F70077080319F0290130F129AD
:2003E0000030F60074087606FE397606F400741508008312B1010130B500B6013714023046
:20040000B200B301B401B710371508007508031D08002808B9002708B800AF21F501F50A6C
:20042000080064008001840A0406031900340406122A7508031DF5033B08A1003A08A00046
:200440000800F0010830F300F41074117410F9291E283C2847284A284D2873287F28371CB4
:20046000332A0510342A051437150800B801B901BA01BB01F5010800370CA000200C01390E
:2004800008000C292929432948295B29740CA000200C013908007208A1007108A0000800A2
:2004A00075080800FF3FFF3FFF3FFF3FFF3FFF3FFF3FFF3FFF3FFF3FFF3FFF3FFF3FFF3F53
:2004C000FF3FFF3FFF3FFF3FFF3FFF3FFF3FFF3FFF3FFF3FFF3FFF3FFF3FFF3FFF3FFF3F3C
:2004E000FF3FFF3FFF3FFF3FFF3FFF3FFF3FFF3FFF3FFF3FFF3FFF3FFF3FFF3FFF3FFF3F1C
:20050000FF3FFF3FFF3FFF3FFF3FFF3FFF3FFF3FFF3FFF3FFF3FFF3FFF3FFF3FFF3FFF3FFB
:20052000FF3FFF3FFF3FFF3FFF3FFF3FFF3FFF3FFF3FFF3FFF3FFF3FFF3FFF3FFF3FFF3FDB
:20400000FF3FFF3FFF3FFF3F00000000000014300000000000000000000000000000000064
:20402000000000000000000000000000000000000000000000000000000000000000000080
:20404000000000000000000000000000000000000000000000000000000000000000000060
:20406000000000000000000000000000000000000000000000000000000000000000000040
:20408000000000000000000000000000000000000000000000000000000000000000000020
:2040A000000000000000000000000000000000000000000000000000000000000000000000
:2040C0000000000000000000000000000000000000000000000000000000000000000000E0
:2040E0000000000000000000000000000000000000000000000000000000000000000000C0
:2041000000000000000000000000000000000000000000000000000000000000000000009F
:2041200000000000000000000000000000000000000000000000000000000000000000007F
:2041400000000000000000000000000000000000000000000000000000000000000000005F
:2041600000000000000000000000000000000000000000000000000000000000000000003F
:2041800000000000000000000000000000000000000000000000000000000000000000001F
:2041A0000000000000000000000000000000000000000000000000000000000000000000FF
:2041C0000000000000000000000000000000000000000000000000000000000000000000DF
:2041E0000000000000000000000000000000000000000000000000000000000000000000BF
:20420000FF00FF00FF00FF00FF00FF00FF00FF00FF00FF00FF00FF00FF00FF00FF00FF00AE
:20422000FF00FF00FF00FF00FF00FF00FF00FF00FF00FF00FF00FF00FF00FF00FF00FF008E
:20424000FF00FF00FF00FF00FF00FF00FF00FF00FF00FF00FF00FF00FF00FF00FF00FF006E
:20426000FF00FF00FF00FF00FF00FF00FF00FF00FF00FF00FF00FF00FF00FF00FF00FF004E
:20428000FF00FF00FF00FF00FF00FF00FF00FF00FF00FF00FF00FF00FF00FF00FF00FF002E
:2042A000FF00FF00FF00FF00FF00FF00FF00FF00FF00FF00FF00FF00FF00FF00FF00FF000E
:2042C000FF00FF00FF00FF00FF00FF00FF00FF00FF00FF00FF00FF00FF00FF00FF00FF00EE
:2042E000FF00FF00FF00FF00FF00FF00FF00FF00FF00FF00FF00FF00FF00FF00FF00FF00CE
:20430000FF00FF00FF00FF00FF00FF00FF00FF00FF00FF00FF00FF00FF00FF00FF00FF00AD
:20432000FF00FF00FF00FF00FF00FF00FF00FF00FF00FF00FF00FF00FF00FF00FF00FF008D
:20434000FF00FF00FF00FF00FF00FF00FF00FF00FF00FF00FF00FF00FF00FF00FF00FF006D
:20436000FF00FF00FF00FF00FF00FF00FF00FF00FF00FF00FF00FF00FF00FF00FF00FF004D
:20438000FF00FF00FF00FF00FF00FF00FF00FF00FF00FF00FF00FF00FF00FF00FF00FF002D
:2043A000FF00FF00FF00FF00FF00FF00FF00FF00FF00FF00FF00FF00FF00FF00FF00FF000D
:2043C000FF00FF00FF00FF00FF00FF00FF00FF00FF00FF00FF00FF00FF00FF00FF00FF00ED
:2043E000FF00FF00FF00FF00FF00FF00FF00FF00FF00FF00FF00FF00FF00FF00FF00FF00CD
:00000001FF
